:400000000080002011000000050400000504000008B5044B1A6803F53F5302331A6000F0F9F900BFFA46004010B5054C237833B9044B13B10448AFF300800123237010BD73
:400040005081FF1F00000000C0120000084B10B51BB108490848AFF300800848036803B910BD074B002BFBD0BDE81040184700BF000000005481FF1FC0120000C880FF1F4E
:40008000000000000122014B1A7070476C81FF1F10B562B600F078FB01F00EF800F00AFE00F01CFE174800F025FC0024164B1B78012B08D13CB14FF40071144800F0B0FB27
:4000C0000024114B1C70104B1B78012B0ED109E0002000F00BFE00F021FE0C4B23F81400013400E00024FF2CF2DD012400F0F6FD002000F0FBFD00F011FE012000F0B4FA63
:40010000D4E700BF850000006C81FF1F8C81FF1FFEE700BFF0B40022174611E050F82760F3B226F0FF0608E001EB420511F812406D78A5550132013BDBB2002BF4D10137CA
:40014000142FEBD9F0BC70470C4B1B78DBB203F007010B4A11701B09013213703022094B1A70012203F683031A70022280331A704422A3F28A231A70704700BFCF01004975
:400180006E580040FD51004008B50A46002101F08EF808BD08B501F07FF808BD38B50024314B1C80502202331A70192502331D8018232E4A137040F65F1102321180023218
:4001C000137004222A492B48FFF7E4FF06222A4B1A705222A3F580731A70284B1B78DBB2274A13704FF4E162264B1A8041F25122023B1A800CE0244B1B7803F0010343EA40
:40020000440404F003044FF4F07001F009F8013D0DB1032CEFD115B90320FFF779FF1B4A4FF48073138007231370002318490B704820023108701370053213700222154BEE
:400240001A7004220A331A70134A137843F007031370013A137843F001031370013A137843F08003137038BD80400040864000408403004800410040004300400F010049B9
:40028000A14600402242004025420040044000400640004001400040A2430040012807D8044B53F820201844017A13780B431370704700BFC4120000012808D8044B53F818
:4002C00020201844017A137823EA010313707047C412000038B572B6384A137843F00403137000240BE0364863001A19510001440A46098AD068FFF747FF0134E4B2092C4C
:40030000F1D900240CE02E48A20011194B000344B3F85020D96C986CFFF73CFF0134E4B2012CF0D927494FF09040FFF7F3FE0A25254B1D7004212548FFF726FF04212448E9
:40034000FFF722FF234A137843F0020313701032137843F0020313701F4C237843F040032370A2F58632513A137843F01003137008221A491A48FFF70DFF082219491A480F
:40038000FFF708FF2A4619491948FFF703FF194A137843F008031370174D61232B70FFF7FDFE81232B700122144B1A70FFF7CCFE0E2221461248FFF7EDFE38BDE8460040B2
:4003C000C41200005400004883580040007600400876004003500140A043004068030048F251004070030048125100407803004820510040224300400048004004000840C4
:40040000B043004008B500F01BFF03680C2B00D1FEE7FEE708B5104E104D16E029686B68AC68002204E051F8040B43F8040B0432A242F8D1E868002203E0002143F8041B44
:4004400004328242F9D11035013E002EE6D100F0FDFEFFF71DFEFEE7010000001014000008B5114A114B1A60114A136843F40073136000230AE0032B03D80E4A52F823107D
:4004800000E00D490D4A42F8231001332F2BF2D90B4B1A780B4B1A70084A0B4B1A60FFF719FF00F013F808BD0004FA050CED00E014ED00E000000000050400000080FF1FCD
:4004C000BC760040C080FF1F08ED00E00B4A7F2313708021517007E0DA0002F1804202F5F042013BDBB21370002BF5D1DB0003F1804303F5F04300221A707047CC80FF1F15
:40050000172815D831B103010A495A5C42F020025A5405E0030107495A5C02F0DF025A540001044A835C43F00103835400207047012070471070004017280BD80001064A10
:40054000835C03F0F103490001F00E011943815400207047012070471070004041F6FF73994201D14FF4005141F6FF739A4201D14FF40052172808D8C00000F1804000F571
:40058000EC408180C280002070470120704700BF172805D8034B03EB0010417200207047012070471070004017281BD810B4C00000F1804404F5EC44D201D2B201F07F0178
:4005C000114321709DF804201201D2B203F00F03134363709DF8083003F00F03A3700020E07001E00120704710BC704710B500F01FFE0A4B5B78182B0BD9084A1478013BCC
:400600005370E30003F1804303F5F0431B78137000E0FF2400F010FE204610BDCC80FF1F10F0800F0CD111F4704F0BD1C00000F1804000F5F04001808270C370002070475F
:40064000012070470120704710F0800F08D1C00000F1804000F5F0408180C280002070470120704701BE704710B5044605E0084B186800F0D5FDA4F50044B4F5004FF6D838
:40068000034B586800FB04F000F0CAFD10BD00BFD480FF1F08B5034B1B7A00FB03F000F0BFFD08BDD480FF1F70B504460E46074B1D681F2802D90020FFF7D4FF04F01F045B
:4006C000103455F8240045F8246070BD08ED00E038B504460D46072902D90020FFF7C2FF1F2C02D90020FFF7BDFF04F01F0000F1604000F564406D01EDB2057038BD00BFAB
:4007000008B572220B4B1A702022013B1A700A490120FFF7C9FF07210120FFF7D9FF0622064B1A70472210331A7002224F331A7008BD00BF8D640040490800002F640040F5
:4007400010B500F075FD04460D4A137843F020031370013A137843F0100313700232137843F0100313700223064A1360A2F5C072136000F097F8204600F05EFD10BD00BF56
:400780009D64004080E200E008B5054B1B7823B9FFF7B6FF0122024B1A70FFF7D1FF08BD6E81FF1F10B4194B99885B889BB2994205D25A1E914214BF0022012206E0CA1AA5
:4007C00040F2FF74A24214BF00220122002AEAD1994207D10E4B1B7813F0040F02D10D4B187010E0B1F5006F00D300210A4B58540131064B9980064B1B7813F0020F02D0AB
:400800000222064B1A6010BC704700BF6E81FF1F6E6400404E6400408C83FF1F00E200E0084B1B7833B97047305DFFF7BBFF0134A4B203E070B50D4606460024AC42F3D3B7
:4008400070BD00BF6E81FF1F15E0114B1B889BB2B3F5006F02D300220D4B1A800C4A13889BB20C49CB5CDBB20B490B7013889BB201339BB21380064B1B889BB2074A128800
:40088000934204D0064B1B7813F0040FDDD070477081FF1F8C83FF1F4E6400407281FF1F6E640040054A137843F0020313701032137843F002031370704700BFA243004028
:4008C000014B1B681864704708ED00E04001C0B2014B1870704700BF00E400E00122014B1A60704700E100E00122014B1A60704780E100E010B50446FFF7F6FF2046FFF7C8
:40090000DFFF0720FFF7E2FFFFF7E8FF10BD00BF10B59DF80840012C51D1013809282ED8DFE800F0052D2D052D2D0F192D230F2B03D92548007840B222E02448007840B25F
:400940001EE00F2B03D92248007840B218E02148007840B214E00F2B03D91F48007840B20EE01E48007840B20AE00F2B03D91C48007840B204E01B48007840B200E00020AC
:4009800001EB401101FB02F1C90B8AB20D2B0BD8C3F10E0289B211418AB2611E124800EB810101338B7005E0631E0F4901EB83030F219970013C0C4B23F8242010BD002095
:4009C000FFF750FE10BD00BF180100491C010049190100491D0100491A0100491E0100491B0100491F0100497881FF1FF8B5074600F01EFC06460D4D2B7843F003032B70C3
:400A00000B4C237843F0030323700A4B1F700320FFF740FE2B7803F0FC032B70237803F0FC032370304600F007FCF8BDF8460040F9460040925800400022324B1A710128D5
:400A40005FD170B53822304B1A70042202331A70062201331A70002401331C7001331C703F2201331A7002331C7001331C7001331C7001250A331D70502203F527631A7085
:400A80000A2201331A702C2201331A7001331C70442203331A70482201331A7001331D7002331D70112201331A70192201331A70972201331A705220FFF798FF5822134B77
:400AC0001A7001331C70052605331E70022201331A7001331C7001331C70204600F066F943F233320A4B1A602946304600F082F92946252000F002FA06491D20FFF7D4FDF8
:400B000070BD70477881FF1F004E0040945800408C8BFF1F890D0000F0B583B0284D01272F70284E00247471102000F051F9102000F0D2F907211D20FFF7CAFD0422224B98
:400B40001A7001331C7007331C70204A137843F0180313701E4B1C7003F2F5231C7001331C700A22A3F209331A7001331C7002331C705B2205331A705E2201331A70043395
:400B80001C701422A3F68C231A70009710234FF4004248F6F0510220FFF7BAFE2B78013B06EB83039A780B4B1A702B78013B36F82320094B1A802878FFF73EFF03B0F0BD4A
:400BC000E480FF1F7881FF1F96580040075B0040935800400E4E00400C4E004070B500F027FB06462A4B1B782A4B1A7842F001021A701A7842F010021A7010331A7842F073
:400C000001021A701A7842F010021A70224D2B7843F002032B70214C237843F0020323701F4A137843F0030313700320FFF732FD2B7803F0FD032B70237803F0FD032370C5
:400C4000184A137843F0060313707A22164B1A70164A137843F0010313701032137843F0010313700F3A137843F0010313701032137843F0010313704FF000530C4A1360A5
:400C8000A2F5C0721360304600F0D6FA70BD00BFE480FF1FAA430040F8460040F9460040915800407758004082580040A143004080E200E008B5084B9B794BB9064BDB79A5
:400CC00013F0FF0F01D1FFF727FF0122024B9A71FFF784FF08BD00BF7881FF1F024A137843F0010313707047004E0040094B1B7913F0FF0F03D0074B5B79DBB203E0064BDD
:400D00001B7803F00103012B01D00028EED01846704700BF7881FF1F014E0040154B1B7803F00303012B07D8134B1888023B1B889BB243EA004013E0022B0AD10E4B188849
:400D4000023B1B7843EA00430C4A107843EA002006E00B4B188883B2074A108843EA0040084B1B7913F0FF0F02D00022054B5A71704700BF144E0040124E0040114E004043
:400D8000104E00407881FF1F704700BF10B5002404E02046FFF790FA0134E4B2012CF8D9FF22014B1A7010BDE580FF1F10B50446FFF7ECFF2046FFF771FA014B1C7010BDE9
:400DC000E580FF1F014B188880B2704780400040034B1A7800F0F80010431870704700BF82400040024B187800F00700704700BF8240004070B505460E46FFF7F3FF04463E
:400E0000FFF7E0FFA84256D02B4B1B7803F0010294B900B185B938B9284B1D80284A137803F0BF03137070BD254A137843F040031370224B1D8070BD22B3002321490B7028
:400E400001240F310C7004310B700C390B7803F07F030B701A4B1B7813F0080F00D08DB9194B18800721013B1970164B1B7813F0010FFAD110490B7803F0FE030B700021DA
:400E8000104B19700C4B1B7813F0010F0DD00E4B1D800EB1032200E001220A4B1A70094B1B7813F0010FFAD170BD044B1D8002490B7813430B7070BDA243004080400040E9
:400EC000824000400140004002400040014B188880B2704700410040034B1A7800F0F80010431870704700BF02410040024B187800F00700704700BF0241004070B50546BE
:400F00000E46FFF7F3FF0446FFF7E0FFA84256D02B4B1B7803F0010294B900B185B938B9284B1D80284A137803F0BF03137070BD254A137843F040031370224B1D8070BD7E
:400F400022B3002321490B70012413310C7004390B7008390B7803F07F030B701A4B1B7813F0080F00D08DB9194B18800721013B1970164B1B7813F0010FFAD110490B7884
:400F800003F0FE030B700021104B19700C4B1B7813F0010F0DD00E4B1D800EB1032200E001220A4B1A70094B1B7813F0010FFAD170BD044B1D8002490B7813430B7070BD7D
:400FC000A14300400041004002410040014000400240004010B500F0C7F8074C01212078FFF78EFA01216078FFF78AFA002000F0D7F800F06FF810BD8481FF1F70B50546BD
:401000000E464FF48043020C0121084600F070F8094C2070A078012302463146FFF700FB4FF4B742A9B2A078FFF70EFBA1782078FFF7AEFA70BD00BF8481FF1F70B5054633
:401040000E464FF48043020C0121084600F06EF8094C6070E078012302463146FFF7E0FA4FF4B742A9B2E078FFF7EEFAE1786078FFF78EFA70BD00BF8481FF1F10B500F0D2
:40108000B7F8022000F07EF8042000F0A1F8FFF7ADFA074CA070FFF7A9FAE070054C64212046FFF7ABFF64216018FFF7C7FF10BD8481FF1F2013000008B5054B1B7923B92E
:4010C000FFF7DCFF0122024B1A71FFF783FF08BD8481FF1F054A137843F0040313701032137843F004031370704700BFA2430040F0B583B016461F460B4D00242C700194C2
:40110000009423460A4601462046FFF74DFA3A4631462878FFF722FA02212878FFF70CFA287803B0F0BD00BFE680FF1FF0B583B016461F460B4C01252570002301930093D8
:401140000A4601462846FFF72FFA3A4631462078FFF704FA02212078FFF7EEF9207803B0F0BD00BFE780FF1F054A137843F0010313701032137843F001031370704700BF63
:40118000A8430040054B1A7802F0FD021A701A7800F0020010431870704700BF20580040014B1870704700BF805B0040064B1B78C3F3810303F19243063393F82031DBB22C
:4011C000024A1370704700BF205800400846004008B5064B1A7802F0F3021A701A7800F00C0010431870FFF7E1FF08BD2058004008B50020074B187001331870064A137849
:4012000043F008031370FFF7E3FF0220FFF7BAFF08BD00BF20580040875A0040000000000230800803D000BF01380046FCD17047EFF3108072B6704780F31088704700BFC6
:40124000014B1868704700BF4881FF1F0E4B70B51E460E4C0025E41AA410A54204D056F8253098470135F8E700F0C0F8084B094C1E46E41AA4100025A54204D056F82530F7
:4012800098470135F8E770BDF8130000F8130000F81300000014000010B5431E0A44914204D011F8014B03F8014FF8E710BD03460244934202D003F8011BFAE7704700008C
:4012C00000000000035B00402443004040000000005100401000305100404000C0510040100000000140800C000D01400001800E0140800100140140000800400140000A12
:40130000004C01400002005001402000800C0140680200488000000E0140E8020048800080878D949BA2A9AFB5BBC1C7CCD1D5DADEE1E4E7EAEBEDEEEFEFEFEEEDEBEAE7CE
:40134000E4E1DEDAD5D1CCC7C1BBB5AFA9A29B948D878078726B645D56504A443E38332E2A25211E1B181514121110101011121415181B1E21252A2E33383E444A50565DF6
:40138000646B727880848A8F94989EA2A8ACB2B6BCC0C6CAD0D5DADEE4E8EEF2F8FCF8F2EEE8E4DEDAD4D0CAC6C0BCB6B2ADA8A29E98948F8A84807A76706B66615D58533A
:4013C0004E49443E39342F2A25211C17120D0803080D12171C21252A2F34393E44494E53585D61666B70767A43000000F8B500BFF8BC08BC9E4670474D00000061040000DE
:40140000F8B500BFF8BC08BC9E4670472900000020140000C880FF1F88000000400A0000000000007F800000030000000000E02EC05D00001800000000366E0101FFFFFFB0
:401440000000000000000000000000000000000000000000000000000000000000000000E81300000000000000000000000000000000000000000000000000000000000071
:401480000000000000000000000000000000000000000000000000000000000000000000E880FF1F00000000000000000000000000000000000000000000000000000000A6
:4014C00000000000000000000000000000000000000000000000000000000000000000000000000000000000000000000000000000000000000000000000000000000000EC
:4015000000000000000000000000000000000000000000000000000000000000000000000000000000000000000000000000000000000000000000000000000000000000AB
:40154000000000000000000000000000000000000000000000000000000000000000000000000000000000000000000000000000000000000000000000000000000000006B
:40158000000000000000000000000000000000000000000000000000000000000000000000000000000000000000000000000000000000000000000000000000000000002B
:020000040003F7
:0200000480007A
:4000000002520040015A004003640040010101400203014001050140040B0140160C0140470D0140360E01403D0F014007400140064101400342014002430140044401401B
:4000400008450140054601400548014002500140025101401002140187018C388D728E0FE602E602EC04E002B002B604B701E002040109010A040C0112021A042202240155
:4000800032043402360137013E143F4054185604580459045B045C015D105F01000401800201030806040721080A09800A280C020D1010A815021704182419811B281D802F
:4000C0001E0A1F042001211222042680280229202A093102332839143C104009410542084A015002520459015F02674A69146B2570E882808740898490109102922094A03C
:40010000951499209B029C029E01A428A582A720B310C0E7C25FC43ECA0FCC07CE26D00FD208D681D8B0E404EC048414870889808A038B138C108EAC930C9620992C9B4303
:400140009C0C9E71A009A171A2D0A30EA4DCA622A810AA40AD71AF06B21FB330B50FB6E0B7C0B820B988BA80BB20BE10BF04C002C704C9FFCA07CBFFCC40CD20CEF0CF056E
:40018000D008D804D904DA04DC11DD01DF01E040E1A8E240E3200114038204500504080209080A140E020F20112012A016041705184019A01A041B021C101E021FD0200424
:4001C00021012214230226A02725280229202A012B202F42302831823620370138A43B013E083F2042204382472049054B0151085510562C571059815A1860808480C0EF12
:40020000C2AEC47ECA9FCCAFCE6FD02BD60FD801322035203C408520CC30CE20E64086209440A620A840E640EC2087019440E04094409F0133807F08CC08DE0100085704C0
:400240008304AB80B308C008D402E80445088508B004D001EA042440270194409F01C8A000020E02000F10020000000039384400393842007F0000000110002C67001801FB
:40028000000001010000460010010000080100001820001200080052203858401F0100060020A8000000014025030400010000CE30FFFFFF62A0F0410C000000000002139D
:4002C00004040404111100010000000000004002001030100010101200000000000000000000000000000000138004006073000C600F007013080C0020634000030C1400A5
:400300004004200000000073007F08000A1C146300421500002100000F1C0080600F106000000220000040044301000000EB000C13FFFFFF0000F0440C00000001000400CA
:400340000404040411110001000000000000C0000000400200000000000000000000000000000000000000000000000000003000000B0B0000000000020001E2E200020039
:4003800000000000250018010000000000000000000000000000000000000000000000000000000000000000000000000000000000000000000000000000000000000000FF
:4003C00000000000000000000000000000000000000000000000000000000000000000000000000000000000000000000000000000000000000000000000000000000000FD
:4004000000000000000000000000000000000000000000000000000000000000000000000000000000000000000000000000000000000000000000000000000000000000BC
:40044000000000000000000000000000000000000000000000000000000000000000000000000000000000000000000000000000000000000000000000000000000000007C
:40048000000000000000000000000000000000000000000000000000000000000000000000000000000000000000000000000000000000000000000000000000000000003C
:0200000490006A
:0400000000004005B7
:0200000490105A
:04000000BC90ACAF55
:0200000490303A
:02000000E6D741
:0200000490402A
:4000000000000000000000000000000000000000000000000000000000000000000000000000000000000000000000000000000000000000000000000000000000000000C0
:400040000000000000000000000000000000000000000000000000000000000000000000000000000000000000000000000000000000000000000000000000000000000080
:400080000000000000000000000000000000000000000000000000000000000000000000000000000000000000000000000000000000000000000000000000000000000040
:4000C0000000000000000000000000000000000000000000000000000000000000000000000000000000000000000000000000000000000000000000000000000000000000
:0200000490501A
:0C00000000012E16006900012E1DE740D3
:00000001FF