:400000000080002011000000750400007504000008B5044B1A6803F53F5302331A6000F031FA00BFFA46004010B5054C237833B9044B13B10448AFF300800123237010BD5A
:400040005081FF1F00000000C0130000084B10B51BB108490848AFF300800848036803B910BD074B002BFBD0BDE81040184700BF000000005481FF1FC0130000C880FF1F4C
:40008000000000000122014B1A7070476C81FF1F0122014B5A7070476C81FF1F38B562B600F0AAFB01F042F800F03CFE00F04EFE2F4800F057FC2F4801F022F941F6FF7379
:4000C0004FF480420121022001F0E2F82A4C207000F0C4FA294D28700623FE224FF4006100F0D6FA264A92B244F61061287800F0E3FA2978207800F083FA0121207800F061
:4001000037FA00241F4B1B78012B0DD164B14FF400611D4800F0BCFB00241A4B1C700121154B187800F024FA164B1B78012B14D1144B5B78012B10D107E0114A32F8131096
:40014000114A22F81310013300E00023B3F5806FF3DB00220B4B5A70012400F0F7FD002000F0FCFD00F012FE012000F0B5FAC9E785000000910000009091FF1F8C89FF1FFF
:400180009089FF1F6C81FF1F8C81FF1FFEE700BFF0B40022174611E050F82760F3B226F0FF0608E001EB420511F812406D78A5550132013BDBB2002BF4D101371A2FEBD905
:4001C000F0BC70470C4B1B78DBB203F007010B4A11701B09013213703022094B1A70012203F683031A70022280331A704422A3F28A231A70704700BFCF0100496E580040F6
:40020000FD51004008B50A46002101F0D0F808BD08B501F0C1F808BD38B50024324B1C80502202331A704FF49C7202331A8018232E4A137040F65F11023211800232137085
:4002400004222B492B48FFF7E3FF06222A4B1A705222A3F580731A70284B1B78DBB2284A13704FF4E162274B1A8041F25122023B1A8019250CE0244B1B7803F0010343EA02
:40028000440404F003044FF4F07001F049F8013D0DB1032CEFD115B90320FFF777FF1B4A4FF48073138007231370002318490B704820023108701370053213700222154B30
:4002C0001A7004220A331A70134A137843F007031370013A137843F001031370013A137843F08003137038BD80400040864000409004004800410040004300400F0100492C
:40030000A14600402242004025420040044000400640004001400040A2430040012807D8044B53F820201844017A13780B431370704700BFC4130000012808D8044B53F896
:4003400020201844017A137823EA010313707047C413000038B572B6324A137843F00403137000240BE0304863001A19510001440A46098AD068FFF745FF0134E4B2072CDA
:40038000F1D92A494FF09040FFF702FF0A25284B1D7004212748FFF735FF042226492748FFF736FF04212648FFF72CFF254A137843F0020313701032137843F002031370ED
:4003C000214C237843F040032370A2F58632513A137843F01003137008221C491C48FFF717FF08221B491C48FFF712FF2A461B491B48FFF70DFF1B4A137843F008031370DC
:40040000194D61232B70FFF707FF81232B700122164B1A70FFF7D6FE0E2221461448FFF7F7FE38BDE8460040C41300006C00004883580040007600409404004850760040A1
:400440000876004003500140A043004074040048F25100407C040048125100408404004820510040224300400048004004000840B043004008B500F063FF03680C2B00D1AA
:40048000FEE7FEE708B5104E104D16E029686B68AC68002204E051F8040B43F8040B0432A242F8D1E868002203E0002143F8041B04328242F9D11035013E002EE6D100F014
:4004C00045FFFFF7EBFDFEE7010000007418000008B5114A114B1A60114A136843F40073136000230AE0032B03D80E4A52F8231000E00D490D4A42F8231001332F2BF2D949
:400500000B4B1A780B4B1A70084A0B4B1A60FFF721FF00F013F808BD0004FA050CED00E014ED00E000000000750400000080FF1FBC760040C080FF1F08ED00E00B4A7F238B
:4005400013708021517007E0DA0002F1804202F5F042013BDBB21370002BF5D1DB0003F1804303F5F04300221A707047CC80FF1F172815D831B103010A495A5C42F02002C1
:400580005A5405E0030107495A5C02F0DF025A540001044A835C43F00103835400207047012070471070004017280BD80001064A835C03F0F103490001F00E0119438154BF
:4005C00000207047012070471070004041F6FF73994201D14FF4005141F6FF739A4201D14FF40052172808D8C00000F1804000F5EC408180C280002070470120704700BF54
:40060000172805D8034B03EB0010417200207047012070471070004017281BD810B4C00000F1804404F5EC44D201D2B201F07F01114321709DF804201201D2B203F00F039A
:40064000134363709DF8083003F00F03A3700020E07001E00120704710BC704710B500F067FE0A4B5B78182B0BD9084A1478013B5370E30003F1804303F5F0431B7813709F
:4006800000E0FF2400F058FE204610BDCC80FF1F10F0800F0CD111F4704F0BD1C00000F1804000F5F04001808270C37000207047012070470120704710F0800F08D1C0005D
:4006C00000F1804000F5F0408180C280002070470120704701BE704710B5044605E0084B186800F01DFEA4F50044B4F5004FF6D8034B586800FB04F000F012FE10BD00BFBE
:40070000D480FF1F08B5034B1B7A00FB03F000F007FE08BDD480FF1F70B504460E46074B1D681F2802D90020FFF7D4FF04F01F04103455F8240045F8246070BD08ED00E059
:4007400038B504460D46072902D90020FFF7C2FF1F2C02D90020FFF7BDFF04F01F0000F1604000F564406D01EDB2057038BD00BF08B572220B4B1A702022013B1A700A4916
:400780000220FFF7C9FF07210220FFF7D9FF0622064B1A70472210331A7002224C331A7008BD00BF8D640040B90800002E64004010B500F0BDFD04460D4A137843F02003A2
:4007C0001370013A137843F010031370023A137843F0100313700423064A1360A2F5C072136000F097F8204600F0A6FD10BD00BF9D64004080E200E008B5054B1B7823B92E
:40080000FFF7B6FF0122024B1A70FFF7D1FF08BD6E81FF1F10B4194B99885B889BB2994205D25A1E914214BF0022012206E0CA1A40F2FF74A24214BF00220122002AEAD19D
:40084000994207D10E4B1B7813F0040F02D10D4B187010E0B1F5006F00D300210A4B58540131064B9980064B1B7813F0020F02D00422064B1A6010BC704700BF6E81FF1F70
:400880006A6400404A6400409491FF1F00E200E0084B1B7833B97047305DFFF7BBFF0134A4B203E070B50D4606460024AC42F3D370BD00BF6E81FF1F15E0114B1B889BB22D
:4008C000B3F5006F02D300220D4B1A800C4A13889BB20C49CB5CDBB20B490B7013889BB201339BB21380064B1B889BB2074A1288934204D0064B1B7813F0040FDDD07047B3
:400900007081FF1F9491FF1F4A6400407281FF1F6A640040054A137843F0020313701032137843F002031370704700BFA2430040014B1B685864704708ED00E04001C0B2D6
:40094000014B1870704700BF01E400E00222014B1A60704700E100E00222014B1A60704780E100E010B50446FFF7F6FF2046FFF7DFFF0720FFF7E2FFFFF7E8FF10BD00BF89
:4009800010B59DF80840012C51D1013809282ED8DFE800F0052D2D052D2D0F192D230F2B03D92548007840B222E02448007840B21EE00F2B03D92248007840B218E02148DB
:4009C000007840B214E00F2B03D91F48007840B20EE01E48007840B20AE00F2B03D91C48007840B204E01B48007840B200E0002001EB401101FB02F1C90B8AB20D2B0BD81E
:400A0000C3F10E0289B211418AB2611E124800EB810101338B7005E0631E0F4901EB83030F219970013C0C4B23F8242010BD0020FFF750FE10BD00BF180100491C010049D3
:400A4000190100491D0100491A0100491E0100491B0100491F0100497881FF1FF8B5074600F066FC06460D4D2B7843F003032B700B4C237843F0030323700A4B1F700320CD
:400A8000FFF740FE2B7803F0FC032B70237803F0FC032370304600F04FFCF8BDF8460040F9460040925800400022324B1A7101285FD170B53822304B1A70042202331A7039
:400AC000062201331A70002401331C7001331C703F2201331A7002331C7001331C7001331C7001250A331D70502203F527631A700A2201331A702C2201331A7001331C70E8
:400B0000442203331A70482201331A7001331D7002331D70112201331A70192201331A70972201331A705220FFF798FF5822134B1A7001331C70052605331E700222013319
:400B40001A7001331C7001331C70204600F066F943F233320A4B1A602946304600F082F92946252000F002FA06491D20FFF7D4FD70BD70477881FF1F004E00409458004055
:400B80009499FF1FF90D0000F0B583B0284D01272F70284E00247471102000F051F9102000F0D2F907211D20FFF7CAFD0422224B1A7001331C7007331C70204A137843F00F
:400BC000180313701E4B1C7003F2F5231C7001331C700A22A3F209331A7001331C7002331C705B2205331A705E2201331A7004331C701422A3F68C231A70009710234FF4AC
:400C0000004248F6F0510220FFF7BAFE2B78013B06EB83039A780B4B1A702B78013B36F82320094B1A802878FFF73EFF03B0F0BDE480FF1F7881FF1F96580040075B004001
:400C4000935800400E4E00400C4E004070B500F06FFB06462A4B1B782A4B1A7842F001021A701A7842F010021A7010331A7842F001021A701A7842F010021A70224D2B7814
:400C800043F002032B70214C237843F0020323701F4A137843F0030313700320FFF732FD2B7803F0FD032B70237803F0FD032370184A137843F0060313707A22164B1A7011
:400CC000164A137843F0010313701032137843F0010313700F3A137843F0010313701032137843F0010313704FF000530C4A1360A2F5C0721360304600F01EFB70BD00BFB1
:400D0000E480FF1FAA430040F8460040F9460040915800407758004082580040A143004080E200E008B5084B9B794BB9064BDB7913F0FF0F01D1FFF727FF0122024B9A7108
:400D4000FFF784FF08BD00BF7881FF1F024A137843F0010313707047004E0040094B1B7913F0FF0F03D0074B5B79DBB203E0064B1B7803F00103012B01D00028EED018460B
:400D8000704700BF7881FF1F014E0040154B1B7803F00303012B07D8134B1888023B1B889BB243EA004013E0022B0AD10E4B1888023B1B7843EA00430C4A107843EA002029
:400DC00006E00B4B188883B2074A108843EA0040084B1B7913F0FF0F02D00022054B5A71704700BF144E0040124E0040114E0040104E00407881FF1F704700BF10B500241A
:400E000004E02046FFF798FA0134E4B2012CF8D9FF22014B1A7010BDE580FF1F10B50446FFF7ECFF2046FFF779FA014B1C7010BDE580FF1F014B188880B270478040004014
:400E4000034B1A7800F0F80010431870704700BF82400040024B187800F00700704700BF8240004070B505460E46FFF7F3FF0446FFF7E0FFA84256D02B4B1B7803F0010231
:400E800094B900B185B938B9284B1D80284A137803F0BF03137070BD254A137843F040031370224B1D8070BD22B3002321490B7001240F310C7004310B700C390B7803F040
:400EC0007F030B701A4B1B7813F0080F00D08DB9194B18800721013B1970164B1B7813F0010FFAD110490B7803F0FE030B700021104B19700C4B1B7813F0010F0DD00E4B8F
:400F00001D800EB1032200E001220A4B1A70094B1B7813F0010FFAD170BD044B1D8002490B7813430B7070BDA243004080400040824000400140004002400040014B18888E
:400F400080B2704700410040034B1A7800F0F80010431870704700BF02410040024B187800F00700704700BF0241004070B505460E46FFF7F3FF0446FFF7E0FFA84256D0C3
:400F80002B4B1B7803F0010294B900B185B938B9284B1D80284A137803F0BF03137070BD254A137843F040031370224B1D8070BD22B3002321490B70012413310C7004396A
:400FC0000B7008390B7803F07F030B701A4B1B7813F0080F00D08DB9194B18800721013B1970164B1B7813F0010FFAD110490B7803F0FE030B700021104B19700C4B1B78A5
:4010000013F0010F0DD00E4B1D800EB1032200E001220A4B1A70094B1B7813F0010FFAD170BD044B1D8002490B7813430B7070BDA1430040004100400241004001400040B1
:401040000240004010B500F0C9F8074C01212078FFF78EFA01216078FFF78AFA002000F0D9F800F071F810BD8481FF1F70B505460E464FF48043020C0121084600F072F8AD
:40108000094C2070A078012302463146FFF700FB4FF4B742A9B2A078FFF70EFBA1782078FFF7AEFA70BD00BF8481FF1F70B505460E464FF48043020C0121084600F070F8B3
:4010C000094C6070E078012302463146FFF7E0FA4FF4B742A9B2E078FFF7EEFAE1786078FFF78EFA70BD00BF8481FF1F10B500F0B9F8022000F080F8042000F0A3F8FFF7A0
:40110000ADFA084CA070FFF7A9FAE070064C4FF47A712046FFF7AAFF642104F57A70FFF7C5FF10BD8481FF1F0014000008B5054B1B7923B9FFF7DAFF0122024B1A71FFF7D3
:4011400081FF08BD8481FF1F054A137843F0040313701032137843F004031370704700BFA2430040F0B583B016461F460B4D00242C700194009423460A4601462046FFF715
:401180004BFA3A4631462878FFF720FA02212878FFF70AFA287803B0F0BD00BFE680FF1FF0B583B016461F460B4C012525700023019300930A4601462846FFF72DFA3A46AC
:4011C00031462078FFF702FA02212078FFF7ECF9207803B0F0BD00BFE780FF1F054A137843F0010313701032137843F001031370704700BFA8430040054B1A7802F0FD028D
:401200001A701A7800F0020010431870704700BF20580040014B1870704700BF805B0040064B1B78C3F3810303F19243063393F82031DBB2024A1370704700BF20580040AC
:401240000846004008B5064B1A7802F0F3021A701A7800F00C0010431870FFF7E1FF08BD2058004008B50020074B187001331870064A137843F008031370FFF7E3FF02200A
:40128000FFF7BAFF08BD00BF20580040875A0040F0B583B016461F460B4C0A2525700023019300932B460A4601462846FFF7B4F93A4631462078FFF789F902212078FFF753
:4012C00073F9207803B0F0BDE880FF1F014B1B681864704708ED00E04001C0B2014B1870704700BF00E400E00122014B1A60704700E100E00122014B1A60704780E100E02A
:4013000010B50446FFF7F6FF2046FFF7DFFF0720FFF7E2FFFFF7E8FF10BD00BF000000000230800803D000BF01380046FCD17047EFF3108072B6704780F31088704700BFF1
:40134000014B1868704700BF4C81FF1F0E4B70B51E460E4C0025E41AA410A54204D056F8253098470135F8E700F072FA084B094C1E46E41AA4100025A54204D056F825303E
:4013800098470135F8E770BD5C1800005C1800005C1800006418000010B5431E0A44914204D011F8014B03F8014FF8E710BD03460244934202D003F8011BFAE770470000E8
:4013C00000000000035B00402443004040000000005100401000305100404000C0510040100000000140001000140140000800400140000A004C01400002005001402000EC
:401400008080818182828384848585868787888889898A8B8B8C8C8D8E8E8F8F90909192929393949595969697979899999A9A9B9B9C9C9D9E9E9F9FA0A0A1A1A2A3A3A438
:40144000A4A5A5A6A6A7A7A8A8A9AAAAABABACACADADAEAEAFAFB0B0B1B1B2B2B3B3B4B4B5B5B6B6B7B7B8B8B8B9B9BABABBBBBCBCBDBDBDBEBEBFBFC0C0C1C1C1C2C2C366
:40148000C3C3C4C4C5C5C5C6C6C7C7C7C8C8C8C9C9CACACACBCBCBCCCCCCCDCDCDCECECECFCFCFD0D0D0D0D1D1D1D2D2D2D2D3D3D3D4D4D4D4D5D5D5D5D6D6D6D6D6D7D7AF
:4014C000D7D7D8D8D8D8D8D8D9D9D9D9D9DADADADADADADADBDBDBDBDBDBDBDBDCDCDCDCDCDCDCDCDCDCDDDDDDDDDDDDDDDDDDDDDDDDDDDDDDDDDDDDDDDDDDDDDDDDDDDD19
:40150000DDDDDDDDDDDDDDDDDDDDDDDDDDDDDDDCDCDCDCDCDCDCDCDCDCDBDBDBDBDBDBDBDBDADADADADADADAD9D9D9D9D9D8D8D8D8D8D8D7D7D7D7D6D6D6D6D6D5D5D5D527
:40154000D4D4D4D4D3D3D3D2D2D2D2D1D1D1D0D0D0D0CFCFCFCECECECDCDCDCCCCCCCBCBCBCACACAC9C9C8C8C8C7C7C7C6C6C5C5C5C4C4C3C3C3C2C2C1C1C1C0C0BFBFBED8
:40158000BEBDBDBDBCBCBBBBBABAB9B9B8B8B8B7B7B6B6B5B5B4B4B3B3B2B2B1B1B0B0AFAFAEAEADADACACABABAAAAA9A8A8A7A7A6A6A5A5A4A4A3A3A2A1A1A0A09F9F9E81
:4015C0009E9D9C9C9B9B9A9A99999897979696959594939392929190908F8F8E8E8D8C8C8B8B8A8989888887878685858484838282818180807F7E7E7D7D7C7B7B7A7A790D
:40160000787877777676757474737372717170706F6F6E6D6D6C6C6B6A6A6969686867666665656464636362616160605F5F5E5E5D5C5C5B5B5A5A59595858575756555512
:40164000545453535252515150504F4F4E4E4D4D4C4C4B4B4A4A494948484747474646454544444343424242414140403F3F3E3E3E3D3D3C3C3C3B3B3A3A3A393938383819
:4016800037373736363535353434343333333232323131313030302F2F2F2F2E2E2E2D2D2D2D2C2C2C2B2B2B2B2A2A2A2A29292929292828282827272727272726262626CB
:4016C0002625252525252525242424242424242423232323232323232323222222222222222222222222222222222222222222222222222222222222222222222222222237
:401700002222222323232323232323232324242424242424242525252525252526262626262727272727272828282829292929292A2A2A2A2B2B2B2B2C2C2C2D2D2D2D2EF3
:401740002E2E2F2F2F2F303030313131323232333333343434353535363637373738383839393A3A3A3B3B3C3C3C3D3D3E3E3E3F3F40404141424242434344444545464623
:40178000474747484849494A4A4B4B4C4C4D4D4E4E4F4F505051515252535354545555565757585859595A5A5B5B5C5C5D5E5E5F5F60606161626363646465656666676888
:4017C0006869696A6A6B6C6C6D6D6E6F6F70707171727373747475767677777878797A7A7B7B7C7D7D7E7E7F80848A8F94989EA2A8ACB2B6BCC0C6CAD0D5DADEE4E8EEF283
:40180000F8FCF8F2EEE8E4DEDAD4D0CAC6C0BCB6B2ADA8A29E98948F8A84807A76706B66615D58534E49443E39342F2A25211C17120D0803080D12171C21252A2F34393EA2
:4018400044494E53585D61666B70767A43000000F8B500BFF8BC08BC9E4670474D000000D1040000F8B500BFF8BC08BC9E4670472900000088180000C880FF1F88000000D9
:401880004818000000000000000000007F800000030400000000E02EC05D00001800000000366E0101FFFFFFFF0000000000000000000000000000000000000000000000DD
:4018C0000000000000000000000000004C18000000000000000000000000000000000000000000000000000000000000000000000000000000000000000000000000000084
:40190000000000000000000000000000EC80FF1F0000000000000000000000000000000000000000000000000000000000000000000000000000000000000000000000001D
:401940000000000000000000000000000000000000000000000000000000000000000000000000000000000000000000000000000000000000000000000000000000000067
:401980000000000000000000000000000000000000000000000000000000000000000000000000000000000000000000000000000000000000000000000000000000000027
:4019C00000000000000000000000000000000000000000000000000000000000000000000000000000000000000000000000000000000000000000000000000000000000E7
:401A000000000000000000000000000000000000000000000000000000000000000000000000000000000000000000000000000000000000000000000000000000000000A6
:020000040003F7
:0200000480007A
:4000000003520040015A00400364004001010140010301400205014004080140020901404B0A01404C0B0140550C0140420D0140560E0140350F0140011901400740014013
:400040000841014007420140024301400644014005450140084601400147014005480140024C0140035001400251014010021102140187018A0F8C388D72E040E602E0026B
:40008000E640B880BE40D804DF011801B0840040040C05040633083F09020C330D010E0C1011140C1702183319041C221F02200821022404270229042A332C0F2D042E307F
:4000C00031043240330134303502360F3A803E043F1540134106450C460E470B481549FF4AFF4BFF4EF04F44500C54015604580459045A045B045C015D115F0166C06A40DF
:400100006B0289068D068F0995029B09A104A507A708A90FAD09AF06B307B50EBB20D904DC10DF01000401820240030808420A080B101080136819E42008210423802508C9
:400140002620281029482A802B882C802D802E0A2F08300832A033043728380439803A083B203F50438449084B20524458905906610185048A208B408D019004918092081D
:40018000933098429A029B289D289E849F84A008A280A388A508A620AC80AF10B002B202B304B748C00FC20FC40FCAFFCC6ECE3ED00AD204D60FD801E00AE64016011A0198
:4001C00030013E014042410142034406450C46E0480949FF4AFF4BFF4C624DA04EF04F41500C5418560458045A045B045D115F016640670269106A306B106D106E106F120E
:40020000802081108250840385E08604890C8A058B118C038E0C8F03901091109260930C94309509971099E09A809C039D1C9E049F02A00AA180A204A340A430A514A940F7
:40024000AA08ABA0AD20AF40B030B3E0B4C0B60FB71FBA80BE10D602D710D804D904DB04DC11DD10DF01018A030508820A180D080F081104128819821B901F012140220423
:40028000284A29022A043298330139843B214508468047604F28572058085A085B805F02674669446A3072027318874089208B028E018F08900493219544961097109B2077
:4002C0009C029D809E839F40A008A28AA308A620A720B180B308C00FC26FC40ECA0FCC0FCE0FD0F0D220D688D8B0011004010519070409180C060D070F1812081401151F40
:40030000180619191B021F01200421082A022B062C012D0130063401351F360838023A083B203E014004454049FF4A074BFF4C404D204EF04F055008580459045A045C1105
:400340005D015F01604061A862406320800885218608870E89408A018B038C068E018F08910C93239606970C9A039E02A008A605A710AA08AB10AD21AF06B110B208B360AF
:40038000B407B70FB808B908BA20BB80BF01D804D904DC11DF010184040406040742080209200A100D280F011008115013021680171819601A401B081C081D201F1420046D
:4003C0002508268A2702280229202A012D802F2431403220331835203608372238043A823B103C883D10424048404B0150085204C0F5C2EEC47BCA7DCCCECE7FD001E04044
:40040000B4013101338036203C408C40CC70CE201140862094409D01A620A780C440E64087018D0194409D01A940AB80E04094409F0133807D208F80CC08DE01E0020008AE
:400440005702A510C008D604450885088702A510A702B004D001EA04A5102440270194409F01C8A0B510EC0800020C020E02003F100200000000000000003000000B0B000B
:4004800000000000020001E2E20002000000000025001801000A0000000000000000000000000000000000000000000000000000000000000000000000000000000000002B
:4004C00000000000000000000000000000000000000000000000000000000000000000000000000000000000000000000000000000000000000000000000000000000000FC
:4005000000000000000000000000000000000000000000000000000000000000000000000000000000000000000000000000000000000000000000000000000000000000BB
:40054000000000000000000000000000000000000000000000000000000000000000000000000000000000000000000000000000000000000000000000000000000000007B
:40058000000000000000000000000000000000000000000000000000000000000000000000000000000000000000000000000000000000000000000000000000000000003B
:0200000490006A
:0400000000004005B7
:0200000490105A
:04000000BC90ACAF55
:0200000490303A
:02000000807905
:0200000490402A
:4000000000000000000000000000000000000000000000000000000000000000000000000000000000000000000000000000000000000000000000000000000000000000C0
:400040000000000000000000000000000000000000000000000000000000000000000000000000000000000000000000000000000000000000000000000000000000000080
:400080000000000000000000000000000000000000000000000000000000000000000000000000000000000000000000000000000000000000000000000000000000000040
:4000C0000000000000000000000000000000000000000000000000000000000000000000000000000000000000000000000000000000000000000000000000000000000000
:0200000490501A
:0C00000000012E16006900012E2080E295
:00000001FF