:400000000080002011000000BD050000BD05000008B5044B1A6803F53F5302331A6000F0D5FA00BFFA46004010B5054C237833B9044B13B10448AFF300800123237010BD24
:400040005881FF1F00000000F8150000084B10B51BB108490848AFF300800848036803B910BD074B002BFBD0BDE81040184700BF000000005C81FF1FF8150000C880FF1FC8
:400080000000000008B500F07DFD00F075FCC0B2064B1870732803D10122054B1A7008BD6F2802D10122024B5A7008BD9481FF1F7481FF1F08B501F047FA0122014B9A7025
:4000C00008BD00BF7481FF1F08B500F015FD064B1B78012B03D10122034BDA7008BD0022014BDA7008BD00BF7481FF1F08B5094BDB786BB9012000F011FD4FF4FA7000F0B3
:400100008FFB002000F00AFD4FF4FA7000F088FB08BD00BF7481FF1F08B5084B9B78012B07D1064A1278012A03D1012000F0EAFC08BD13B9002000F0E5FC08BD7481FF1F16
:400140000D4B1B780B2B16D110B510E0012001F083F84FF4FA7000F063FB002001F07CF84FF4FA7000F05CFB0134E4B200E00024022CEBD910BD7047CC80FF1F034B1B7831
:400180000A2B02D80133014A13707047CC80FF1F38B562B600F0D4FB01F0DEF800F0CCFE00F0DEFE3D4800F0DFFC3D4801F0BEF93C4800F093FC41F6FF734FF480420121AC
:4001C000022001F07BF9384D287000F0EBFA374C20700623FE224FF4006100F0FDFA344A92B244F61061207800F00AFB2178287800F0AAFA0024002000F0BAFE00F0D0FE2E
:40020000FFF774FF2B4B1B78012B07D1294B5B7823B90121244B187800F04EFAFFF77CFF244B1878012814D19B78012B11D1214BDB78012B0DD107E01D4A32F813101E4A61
:4002400022F81310013300E00023B3F5806FF3DB0124012808D13CB14FF40061164800F0D3FB0024134B1C70124B5B78012B05D1FFF784FF0F4B00229A705A700F4B1B78DB
:400280000A2BB8D90B4B0022DA701A709A705A70FFF756FF0122094B1A70ACE785000000B5000000C90000009C91FF1F9889FF1F9C89FF1F7481FF1F9881FF1FCC80FF1FF5
:4002C000FEE700BFF0B40022174611E050F82760F3B226F0FF0608E001EB420511F812406D78A5550132013BDBB2002BF4D101371A2FEBD9F0BC70470C4B1B78DBB203F064
:4003000007010B4A11701B09013213703022094B1A70012203F683031A70022280331A704422A3F28A231A70704700BFCF0100496E580040FD51004008B50A46002101F0D4
:4003400052F908BD08B501F043F908BD38B50024364B1C80502202331A704FF49C7202331A801823324A137040F65F11023211800232137040F604522E4B1A801B220233D2
:400380001A7004222C492D48FFF7DCFF06222C4B1A705222A3F580731A702A4B1B78DBB2294A13704FF4E162284B1A8041F25122023B1A8019250CE0254B1B7803F0010361
:4003C00043EA440404F003044FF4F07001F0C4F8013D0DB1032CEFD115B90320FFF770FF1C4A4FF4807313800723137000231A490B704820023108701370053213700222AB
:40040000164B1A7004220A331A70154A137843F00F031370013A137843F001031370013A137843F08003137038BD00BF80400040864000408C400040A00400480041004080
:40044000004300400F010049A14600402242004025420040044000400640004001400040A2430040012807D8044B53F820201844017A13780B431370704700BFFC150000E2
:40048000012808D8044B53F820201844017A137823EA010313707047FC15000038B572B6324A137843F00403137000240BE0304863001A19510001440A46098AD068FFF7FE
:4004C0003BFF0134E4B2072CF1D92A494FF09040FFF7F8FE0A25284B1D7004212748FFF72BFF042226492748FFF72CFF04212648FFF722FF254A137843F0020313701032E3
:40050000137843F002031370214C237843F040032370A2F58632513A137843F01003137008221C491C48FFF70DFF08221B491C48FFF708FF2A461B491B48FFF703FF1B4ABE
:40054000137843F008031370194D61232B70FFF7FDFE81232B700122164B1A70FFF7CCFE0E2221461448FFF7EDFE38BDE8460040FC1500006C0000488358004000760040DF
:40058000A4040048507600400876004003500140A043004084040048F25100408C040048125100409404004820510040224300400048004004000840B043004008B500F018
:4005C000DBFF03680C2B00D1FEE7FEE708B5104E104D16E029686B68AC68002204E051F8040B43F8040B0432A242F8D1E868002203E0002143F8041B04328242F9D110359A
:40060000013E002EE6D100F0BDFFFFF7C1FDFEE701000000AC1A000008B5114A114B1A60114A136843F40073136000230AE0032B03D80E4A52F8231000E00D490D4A42F8F7
:40064000231001332F2BF2D90B4B1A780B4B1A70084A0B4B1A60FFF721FF00F013F808BD0004FA050CED00E014ED00E000000000BD0500000080FF1FBC760040C080FF1F41
:4006800008ED00E00B4A7F2313708021517007E0DA0002F1804202F5F042013BDBB21370002BF5D1DB0003F1804303F5F04300221A707047D080FF1F172815D831B103010D
:4006C0000A495A5C42F020025A5405E0030107495A5C02F0DF025A540001044A835C43F00103835400207047012070471070004017280BD80001064A835C03F0F103490052
:4007000001F00E011943815400207047012070471070004041F6FF73994201D14FF4005141F6FF739A4201D14FF40052172808D8C00000F1804000F5EC408180C28000202F
:4007400070470120704700BF172805D8034B03EB0010417200207047012070471070004017281BD810B4C00000F1804404F5EC44D201D2B201F07F01114321709DF80420A7
:400780001201D2B203F00F03134363709DF8083003F00F03A3700020E07001E00120704710BC704710B500F0DFFE0A4B5B78182B0BD9084A1478013B5370E30003F180438B
:4007C00003F5F0431B78137000E0FF2400F0D0FE204610BDD080FF1F10F0800F0CD111F4704F0BD1C00000F1804000F5F04001808270C37000207047012070470120704787
:4008000010F0800F08D1C00000F1804000F5F0408180C280002070470120704701BE704710B5044605E0084B186800F095FEA4F50044B4F5004FF6D8034B586800FB04F068
:4008400000F08AFE10BD00BFD880FF1F08B5034B1B7A00FB03F000F07FFE08BDD880FF1F70B504460E46074B1D681F2802D90020FFF7D4FF04F01F04103455F8240045F81A
:40088000246070BD08ED00E038B504460D46072902D90020FFF7C2FF1F2C02D90020FFF7BDFF04F01F0000F1604000F564406D01EDB2057038BD00BF08B572220B4B1A70AA
:4008C0002022043B1A700A490220FFF7C9FF07210220FFF7D9FF0622064B1A70472210331A7002224D331A7008BD00BF8E640040310A00002F64004010B500F035FE044645
:400900000D4A137843F020031370043A137843F0100313700232137843F0100313700423064A1360A2F5C072136000F0AFF8204600F01EFE10BD00BF9E64004080E200E0A3
:4009400008B5054B1B7823B9FFF7B6FF0122024B1A70FFF7D1FF08BD7881FF1F014B1878704700BF4A640040024B187800F07F00704700BF6A64004010B5FFF7F5FF0402EF
:40098000FFF7ECFF204380B210BD00BF10B4194B99885B889BB2994205D25A1E914214BF0022012206E0CA1A40F2FF74A24214BF00220122002AEAD1994207D10E4B1B78B8
:4009C00013F0040F02D10D4B187010E0B1F5006F00D300210A4B58540131064B9980064B1B7813F0020F02D00422064B1A6010BC704700BF7881FF1F6C6400404C64004084
:400A0000A091FF1F00E200E0084B1B7833B97047305DFFF7BBFF0134A4B203E070B50D4606460024AC42F3D370BD00BF7881FF1F15E0114B1B889BB2B3F5006F02D3002283
:400A40000D4B1A800C4A13889BB20C49CB5CDBB20B490B7013889BB201339BB21380064B1B889BB2074A1288934204D0064B1B7813F0040FDDD070477A81FF1FA091FF1FD7
:400A80004C6400407C81FF1F6C640040054A137843F0020313701032137843F002031370704700BFA2430040014B1B68D864704708ED00E04001C0B2014B1870704700BFCF
:400AC00003E400E00822014B1A60704700E100E00822014B1A60704780E100E010B50446FFF7F6FF2046FFF7DFFF0720FFF7E2FFFFF7E8FF10BD00BF0822014B1A6070479D
:400B000080E200E0044A137803F07F03C001C0B218431070704700BF20510040044A137803F0DF03400100F0200018431070704720510040014B1B685864704708ED00E097
:400B40004001C0B2014B1870704700BF01E400E00222014B1A60704700E100E00222014B1A60704780E100E010B50446FFF7F6FF2046FFF7DFFF0720FFF7E2FFFFF7E8FF60
:400B800010BD00BF0222014B1A60704780E200E010B59DF80840012C51D1013809282ED8DFE800F0052D2D052D2D0F192D230F2B03D92548007840B222E02448007840B2B3
:400BC0001EE00F2B03D92248007840B218E02148007840B214E00F2B03D91F48007840B20EE01E48007840B20AE00F2B03D91C48007840B204E01B48007840B200E000202A
:400C000001EB401101FB02F1C90B8AB20D2B0BD8C3F10E0289B211418AB2611E124800EB810101338B7005E0631E0F4901EB83030F219970013C0C4B23F8242010BD002012
:400C4000FFF7ECFD10BD00BF180100491C010049190100491D0100491A0100491E0100491B0100491F0100498081FF1FF8B5074600F07AFC06460D4D2B7843F003032B7041
:400C80000B4C237843F0030323700A4B1F700320FFF7DCFD2B7803F0FC032B70237803F0FC032370304600F063FCF8BDF8460040F9460040925800400022314B1A7101285D
:400CC0005DD170B538222F4B1A70042202331A70062201331A70002401331C7001331C703F2201331A7002331C7001331C7001331C7001250A331D70502203F527631A7006
:400D00000A23214A13702C210132117001321470442103321170482101321170013215700232147001321470013213704322174B1A705220FFF79AFF5822154B1A700133E1
:400D40001C70052605331E70022201331A7001331C7001331C70204600F06AF943F233320C4B1A602946304600F086F92946BA2000F006FA08491D20FFF772FD70BD70470C
:400D80008081FF1F004E0040855800409158004094580040A099FF1F0D100000F0B583B0284D01272F70284E00247471102000F051F9102000F0D2F907211D20FFF764FDFC
:400DC0000422224B1A7001331C7007331C70204A137843F0180313701E4B1C7003F2F5231C7001331C700A22A3F209331A7001331C7002331C705B2205331A705E22013341
:400E00001A7004331C701422A3F68C231A70009710234FF4004248F6F0510220FFF7B8FE2B78013B06EB83039A780B4B1A702B78013B36F82320094B1A802878FFF73CFF6A
:400E400003B0F0BDE880FF1F8081FF1F96580040075B0040935800400E4E00400C4E004070B500F081FB06462A4B1B782A4B1A7842F001021A701A7842F010021A701033EE
:400E80001A7842F001021A701A7842F010021A70224D2B7843F002032B70214C237843F0020323701F4A137843F0030313700320FFF7CCFC2B7803F0FD032B70237803F079
:400EC000FD032370184A137843F0060313707A22164B1A70164A137843F0010313701032137843F0010313700F3A137843F0010313701032137843F0010313704FF0005359
:400F00000C4A1360A2F5C0721360304600F030FB70BD00BFE880FF1FAA430040F8460040F9460040915800407758004082580040A143004080E200E008B5084B9B794BB99F
:400F4000064BDB7913F0FF0F01D1FFF727FF0122024B9A71FFF784FF08BD00BF8081FF1F024A137843F0010313707047004E0040094B1B7913F0FF0F03D0074B5B79DBB2E1
:400F800003E0064B1B7803F00103012B01D00028EED01846704700BF8081FF1F014E0040154B1B7803F00303012B07D8134B1888023B1B889BB243EA004013E0022B0AD184
:400FC0000E4B1888023B1B7843EA00430C4A107843EA002006E00B4B188883B2074A108843EA0040084B1B7913F0FF0F02D00022054B5A71704700BF144E0040124E004067
:40100000114E0040104E00408081FF1F704700BF10B5002404E02046FFF732FA0134E4B2012CF8D9FF22014B1A7010BDE980FF1F10B50446FFF7ECFF2046FFF713FA014BD0
:401040001C7010BDE980FF1F014B188880B2704780400040034B1A7800F0F80010431870704700BF82400040024B187800F00700704700BF8240004070B505460E46FFF79A
:40108000F3FF0446FFF7E0FFA84256D02B4B1B7803F0010294B900B185B938B9284B1D80284A137803F0BF03137070BD254A137843F040031370224B1D8070BD22B300234F
:4010C00021490B7001240F310C7004310B700C390B7803F07F030B701A4B1B7813F0080F00D08DB9194B18800721013B1970164B1B7813F0010FFAD110490B7803F0FE030F
:401100000B700021104B19700C4B1B7813F0010F0DD00E4B1D800EB1032200E001220A4B1A70094B1B7813F0010FFAD170BD044B1D8002490B7813430B7070BDA2430040CA
:4011400080400040824000400140004002400040014B188880B2704700410040034B1A7800F0F80010431870704700BF02410040024B187800F00700704700BF02410040AB
:4011800070B505460E46FFF7F3FF0446FFF7E0FFA84256D02B4B1B7803F0010294B900B185B938B9284B1D80284A137803F0BF03137070BD254A137843F040031370224B56
:4011C0001D8070BD22B3002321490B70012413310C7004390B7008390B7803F07F030B701A4B1B7813F0080F00D08DB9194B18800721013B1970164B1B7813F0010FFAD114
:4012000010490B7803F0FE030B700021104B19700C4B1B7813F0010F0DD00E4B1D800EB1032200E001220A4B1A70094B1B7813F0010FFAD170BD044B1D8002490B781343C6
:401240000B7070BDA143004000410040024100400140004002400040044A137803F0BF03800100F040001843107070472051004010B500F0C9F8074C01212078FFF71CFA8A
:4012800001216078FFF718FA002000F0D9F800F071F810BD8C81FF1F70B505460E464FF48043020C0121084600F072F8094C2070A078012302463146FFF78EFA4FF4B742BE
:4012C000A9B2A078FFF79CFAA1782078FFF73CFA70BD00BF8C81FF1F70B505460E464FF48043020C0121084600F070F8094C6070E078012302463146FFF76EFA4FF4B74261
:40130000A9B2E078FFF77CFAE1786078FFF71CFA70BD00BF8C81FF1F10B500F0B9F8022000F080F8042000F0A3F8FFF73BFA084CA070FFF737FAE070064C4FF47A712046AF
:40134000FFF7AAFF642104F57A70FFF7C5FF10BD8C81FF1F3816000008B5054B1B7923B9FFF7DAFF0122024B1A71FFF781FF08BD8C81FF1F054A137843F0040313701032E0
:40138000137843F004031370704700BFA2430040F0B583B016461F460B4D00242C700194009423460A4601462046FFF7D9F93A4631462878FFF7AEF902212878FFF798F9C4
:4013C000287803B0F0BD00BFEA80FF1FF0B583B016461F460B4C012525700023019300930A4601462846FFF7BBF93A4631462078FFF790F902212078FFF77AF9207803B085
:40140000F0BD00BFEB80FF1F054A137843F0010313701032137843F001031370704700BFA8430040054B1A7802F0FD021A701A7800F0020010431870704700BF2058004011
:40144000014B1870704700BF805B0040064B1B78C3F3810303F19243063393F82031DBB2024A1370704700BF205800400846004008B5064B1A7802F0F3021A701A7800F060
:401480000C0010431870FFF7E1FF08BD2058004008B50020074B187001331870064A137843F008031370FFF7E3FF0220FFF7BAFF08BD00BF20580040875A0040F0B583B005
:4014C00016461F460B4C0A2525700023019300932B460A4601462846FFF742F93A4631462078FFF717F902212078FFF701F9207803B0F0BDEC80FF1F014B1B68186470475B
:4015000008ED00E04001C0B2014B1870704700BF00E400E00122014B1A60704700E100E00122014B1A60704780E100E010B50446FFF7F6FF2046FFF7DFFF0720FFF7E2FFA1
:40154000FFF7E8FF10BD00BF0122014B1A60704780E200E0000000000230800803D000BF01380046FCD17047EFF3108072B6704780F31088704700BF014B1868704700BFBD
:401580005081FF1F0E4B70B51E460E4C0025E41AA410A54204D056F8253098470135F8E700F072FA084B094C1E46E41AA4100025A54204D056F8253098470135F8E770BD19
:4015C000941A0000941A0000941A00009C1A000010B5431E0A44914204D011F8014B03F8014FF8E710BD03460244934202D003F8011BFAE77047000000000000035B004041
:401600002443004040000000005100401000305100404000C0510040100000000140001000140140000800400140000A004C0140000200500140200080808181828283843A
:40164000848585868787888889898A8B8B8C8C8D8E8E8F8F90909192929393949595969697979899999A9A9B9B9C9C9D9E9E9F9FA0A0A1A1A2A3A3A4A4A5A5A6A6A7A7A8D3
:40168000A8A9AAAAABABACACADADAEAEAFAFB0B0B1B1B2B2B3B3B4B4B5B5B6B6B7B7B8B8B8B9B9BABABBBBBCBCBDBDBDBEBEBFBFC0C0C1C1C1C2C2C3C3C3C4C4C5C5C5C631
:4016C000C6C7C7C7C8C8C8C9C9CACACACBCBCBCCCCCCCDCDCDCECECECFCFCFD0D0D0D0D1D1D1D2D2D2D2D3D3D3D4D4D4D4D5D5D5D5D6D6D6D6D6D7D7D7D7D8D8D8D8D8D8D2
:40170000D9D9D9D9D9DADADADADADADADBDBDBDBDBDBDBDBDCDCDCDCDCDCDCDCDCDCDDDDDDDDDDDDDDDDDDDDDDDDDDDDDDDDDDDDDDDDDDDDDDDDDDDDDDDDDDDDDDDDDDDDAC
:40174000DDDDDDDDDDDDDDDCDCDCDCDCDCDCDCDCDCDBDBDBDBDBDBDBDBDADADADADADADAD9D9D9D9D9D8D8D8D8D8D8D7D7D7D7D6D6D6D6D6D5D5D5D5D4D4D4D4D3D3D3D232
:40178000D2D2D2D1D1D1D0D0D0D0CFCFCFCECECECDCDCDCCCCCCCBCBCBCACACAC9C9C8C8C8C7C7C7C6C6C5C5C5C4C4C3C3C3C2C2C1C1C1C0C0BFBFBEBEBDBDBDBCBCBBBB4E
:4017C000BABAB9B9B8B8B8B7B7B6B6B5B5B4B4B3B3B2B2B1B1B0B0AFAFAEAEADADACACABABAAAAA9A8A8A7A7A6A6A5A5A4A4A3A3A2A1A1A0A09F9F9E9E9D9C9C9B9B9A9A45
:4018000099999897979696959594939392929190908F8F8E8E8D8C8C8B8B8A8989888887878685858484838282818180807F7E7E7D7D7C7B7B7A7A797878777776767574F4
:4018400074737372717170706F6F6E6D6D6C6C6B6A6A6969686867666665656464636362616160605F5F5E5E5D5C5C5B5B5A5A5959585857575655555454535352525151EF
:4018800050504F4F4E4E4D4D4C4C4B4B4A4A494948484747474646454544444343424242414140403F3F3E3E3E3D3D3C3C3C3B3B3A3A3A39393838383737373636353535BB
:4018C0003434343333333232323131313030302F2F2F2F2E2E2E2D2D2D2D2C2C2C2B2B2B2B2A2A2A2A29292929292828282827272727272726262626262525252525252510
:401900002424242424242424232323232323232323232222222222222222222222222222222222222222222222222222222222222222222222222222222222232323232308
:40194000232323232324242424242424242525252525252526262626262727272727272828282829292929292A2A2A2A2B2B2B2B2C2C2C2D2D2D2D2E2E2E2F2F2F2F30304E
:4019800030313131323232333333343434353535363637373738383839393A3A3A3B3B3C3C3C3D3D3E3E3E3F3F404041414242424343444445454646474747484849494A18
:4019C0004A4B4B4C4C4D4D4E4E4F4F505051515252535354545555565757585859595A5A5B5B5C5C5D5E5E5F5F6060616162636364646565666667686869696A6A6B6C6C36
:401A00006D6D6E6F6F70707171727373747475767677777878797A7A7B7B7C7D7D7E7E7F80848A8F94989EA2A8ACB2B6BCC0C6CAD0D5DADEE4E8EEF2F8FCF8F2EEE8E4DE1B
:401A4000DAD4D0CAC6C0BCB6B2ADA8A29E98948F8A84807A76706B66615D58534E49443E39342F2A25211C17120D0803080D12171C21252A2F34393E44494E53585D61662C
:401A80006B70767A43000000F8B500BFF8BC08BC9E4670474D00000019060000F8B500BFF8BC08BC9E46704729000000C01A0000C880FF1F9000000050180000000000004D
:401AC00000000000010000007F800000030400000000E02EC05D00001800000000366E0101FFFFFFFF000000000000000000000000000000000000000000000000000000FA
:401B00000000000000000000841A00000000000000000000000000000000000000000000000000000000000000000000000000000000000000000000000000000000000007
:401B40000000000000000000F080FF1F00000000000000000000000000000000000000000000000000000000000000000000000000000000000000000000000000000000D7
:401B80000000000000000000000000000000000000000000000000000000000000000000000000000000000000000000000000000000000000000000000000000000000025
:401BC00000000000000000000000000000000000000000000000000000000000000000000000000000000000000000000000000000000000000000000000000000000000E5
:401C000000000000000000000000000000000000000000000000000000000000000000000000000000000000000000000000000000000000000000000000000000000000A4
:401C40000000000000000000000000000000000000000000000000000000000000000000000000000000000000000000000000000000000000000000000000000000000064
:020000040003F7
:0200000480007A
:4000000002520040015A004003640040010101400203014001050140020901405A0A0140510B0140520C0140490D01404E0E0140300F0140011701400119014007400140FD
:400040000941014006420140014301400644014008450140074601400147014006480140024C014003500140025101401102140187018A388C0F8E72E040E602EE04E20286
:40008000B120B3020010022004400501062008700B040C200E500F041001110112061401160E17021A031B021E0C200C2203247029012A08307031013302340F35043A20E5
:4000C0003F144025410442064403450C46E0480949FF4AFF4BFF4C624DA04EF04F41500C54185604580459045A045B045C115D115F016640670269106A306B106D106E10FD
:400100006F1281098310851489108A019001950C960197119801991C9B029D209F03AA01AD10AF0CB001B520B71FB908BE01BF14D804D904DC10DF0100400102032C0520BB
:4001400008180A410D010E480F20110413121608184019201A801E80212022062504269028102A082B082E4030023114321034083520368439843B203C203D023E013F14C4
:40018000401042044302480149144A025310590161226302850286108A048B019010918692249304968099039A089B049D20A012A101A204A332A401A504A640AD80B440BE
:4001C000B502C04FC27FC44ECA14CC77CEEED007D20CD601D80DE408EA080330050207080B100E01110113281501171819301B092104310333383504360139023B083F1047
:400200004052410645EB46C0480B49FF4AFF4BFF4EF04F44500C54015604580459045A045B045C135D115F0166C06A406B028009823484128628870A881889068B088C0350
:400240008F10900391069240931896039701980399069B089E03A203A301A418A501A914AB08AD01B003B11EB260B418B604B701B980BB02BE04D804D904DC11DF010004AC
:40028000010203060580085109080A850B1011041240181419011A021B201D402141220224802501260C2718285029202B022D0131083202331035203606388039103A28B7
:4002C0003C203D023E0846084D014E0A4F04562057105D115E805F0867408740910492259310944496029A489B049C019D62A012A302A401A504A606AB20B504C08FC20F67
:40030000C40CCA8FCCE7CEEED020D230D6F0D880011002130402051809080C010F26101F1301140C15391613170418131A0C1C0F1D191E101F22200821012404280C29276D
:400340002B182C032D3F331F340F3538361C3AA23B0856025712580459045B045C115D105F018101850189018C018E02910692019506A101A702A904B002B306B401B501D7
:40038000B908BF14C002C640C9FFCA07CBFFCC40CD20CEF0CF05D008D804D904DA04DC03DD01DF01E040E1A8E240E3200046024005400A450B100E801009130619101A459A
:4003C0001B831E801F20210822102310272829122B022D202E09310832013380360638283A423E043F124720541056085B08680269046B04701C72027306C08DC21FC40FA3
:40040000CAEDCCCBCEEFD020D602E040EC20EC203388360437203C408C40CCF0CE201140870894409F20A788AA04C440E640EE20872094409F20A940AB80E24094403380F4
:400440007E088F80CC08DE01E00201080B105840B608C008C208D401EC02450284409C40AF10B508D001EA02A502244025409440A540B140C8A0B102EC04000A0C020E0A0E
:4004800000FF10020000000000003000000B0B0000000000120001F2E200020000000000BB001801000A00000000000000000000000000000000000000000000000000001E
:4004C00000000000000000000000000000000000000000000000000000000000000000000000000000000000000000000000000000000000000000000000000000000000FC
:4005000000000000000000000000000000000000000000000000000000000000000000000000000000000000000000000000000000000000000000000000000000000000BB
:40054000000000000000000000000000000000000000000000000000000000000000000000000000000000000000000000000000000000000000000000000000000000007B
:40058000000000000000000000000000000000000000000000000000000000000000000000000000000000000000000000000000000000000000000000000000000000003B
:0200000490006A
:0400000000004005B7
:0200000490105A
:04000000BC90ACAF55
:0200000490303A
:02000000618518
:0200000490402A
:4000000000000000000000000000000000000000000000000000000000000000000000000000000000000000000000000000000000000000000000000000000000000000C0
:400040000000000000000000000000000000000000000000000000000000000000000000000000000000000000000000000000000000000000000000000000000000000080
:400080000000000000000000000000000000000000000000000000000000000000000000000000000000000000000000000000000000000000000000000000000000000040
:4000C0000000000000000000000000000000000000000000000000000000000000000000000000000000000000000000000000000000000000000000000000000000000000
:0200000490501A
:0C00000000012E16006900012E2161EEA7
:00000001FF